{
    "abi": [
        {
            "inputs": [
                {
                    "internalType": "address payable",
                    "name": "_owner",
                    "type": "address"
                },
                {
                    "internalType": "address payable",
                    "name": "_aliceAccount",
                    "type": "address"
                }
            ],
            "stateMutability": "nonpayable",
            "type": "constructor"
        },
        {
            "anonymous": false,
            "inputs": [
                {
                    "indexed": false,
                    "internalType": "bool",
                    "name": "",
                    "type": "bool"
                },
                {
                    "indexed": false,
                    "internalType": "bytes",
                    "name": "",
                    "type": "bytes"
                }
            ],
            "name": "CallResponseEvent",
            "type": "event"
        },
        {
            "inputs": [],
            "name": "getPseudorandomSeed",
            "outputs": [
                {
                    "internalType": "bytes32",
                    "name": "seedBytes",
                    "type": "bytes32"
                }
            ],
            "stateMutability": "nonpayable",
            "type": "function"
        },
        {
            "inputs": [
                {
                    "internalType": "address",
                    "name": "token",
                    "type": "address"
                },
                {
                    "internalType": "bytes",
                    "name": "encodedFunctionSelector",
                    "type": "bytes"
                }
            ],
            "name": "redirectForToken",
            "outputs": [
                {
                    "internalType": "int256",
                    "name": "responseCode",
                    "type": "int256"
                },
                {
                    "internalType": "bytes",
                    "name": "response",
                    "type": "bytes"
                }
            ],
            "stateMutability": "nonpayable",
            "type": "function"
        },
        {
            "inputs": [],
            "name": "step0",
            "outputs": [
                {
                    "internalType": "bytes32",
                    "name": "result",
                    "type": "bytes32"
                }
            ],
            "stateMutability": "nonpayable",
            "type": "function"
        },
        {
            "inputs": [],
            "name": "step1",
            "outputs": [
                {
                    "internalType": "int256",
                    "name": "responseCode",
                    "type": "int256"
                }
            ],
            "stateMutability": "payable",
            "type": "function"
        },
        {
            "inputs": [],
            "name": "step10",
            "outputs": [
                {
                    "internalType": "int256",
                    "name": "responseCode",
                    "type": "int256"
                }
            ],
            "stateMutability": "nonpayable",
            "type": "function"
        },
        {
            "inputs": [
                {
                    "internalType": "bytes",
                    "name": "keyBytes",
                    "type": "bytes"
                }
            ],
            "name": "step11",
            "outputs": [
                {
                    "internalType": "int256",
                    "name": "responseCode",
                    "type": "int256"
                },
                {
                    "internalType": "address",
                    "name": "",
                    "type": "address"
                }
            ],
            "stateMutability": "payable",
            "type": "function"
        },
        {
            "inputs": [
                {
                    "internalType": "bytes[]",
                    "name": "metadatas",
                    "type": "bytes[]"
                }
            ],
            "name": "step12",
            "outputs": [
                {
                    "internalType": "int256",
                    "name": "responseCode",
                    "type": "int256"
                }
            ],
            "stateMutability": "nonpayable",
            "type": "function"
        },
        {
            "inputs": [],
            "name": "step13",
            "outputs": [
                {
                    "internalType": "int256",
                    "name": "responseCode",
                    "type": "int256"
                }
            ],
            "stateMutability": "nonpayable",
            "type": "function"
        },
        {
            "inputs": [],
            "name": "step14",
            "outputs": [
                {
                    "internalType": "int256",
                    "name": "responseCode",
                    "type": "int256"
                }
            ],
            "stateMutability": "nonpayable",
            "type": "function"
        },
        {
            "inputs": [],
            "name": "step15",
            "outputs": [
                {
                    "internalType": "int256",
                    "name": "responseCode",
                    "type": "int256"
                }
            ],
            "stateMutability": "nonpayable",
            "type": "function"
        },
        {
            "inputs": [],
            "name": "step16",
            "outputs": [
                {
                    "internalType": "int256",
                    "name": "responseCode",
                    "type": "int256"
                }
            ],
            "stateMutability": "nonpayable",
            "type": "function"
        },
        {
            "inputs": [],
            "name": "step2",
            "outputs": [
                {
                    "internalType": "int256",
                    "name": "responseCode",
                    "type": "int256"
                }
            ],
            "stateMutability": "nonpayable",
            "type": "function"
        },
        {
            "inputs": [],
            "name": "step3",
            "outputs": [
                {
                    "internalType": "int256",
                    "name": "responseCode",
                    "type": "int256"
                }
            ],
            "stateMutability": "nonpayable",
            "type": "function"
        },
        {
            "inputs": [],
            "name": "step4",
            "outputs": [
                {
                    "internalType": "int256",
                    "name": "responseCode",
                    "type": "int256"
                }
            ],
            "stateMutability": "nonpayable",
            "type": "function"
        },
        {
            "inputs": [],
            "name": "step5",
            "outputs": [
                {
                    "internalType": "int256",
                    "name": "responseCode",
                    "type": "int256"
                }
            ],
            "stateMutability": "nonpayable",
            "type": "function"
        },
        {
            "inputs": [],
            "name": "step6",
            "outputs": [
                {
                    "internalType": "int256",
                    "name": "responseCode",
                    "type": "int256"
                }
            ],
            "stateMutability": "nonpayable",
            "type": "function"
        },
        {
            "inputs": [],
            "name": "step7",
            "outputs": [
                {
                    "internalType": "int256",
                    "name": "responseCode",
                    "type": "int256"
                }
            ],
            "stateMutability": "nonpayable",
            "type": "function"
        },
        {
            "inputs": [],
            "name": "step8",
            "outputs": [
                {
                    "internalType": "int256",
                    "name": "responseCode",
                    "type": "int256"
                }
            ],
            "stateMutability": "nonpayable",
            "type": "function"
        },
        {
            "inputs": [],
            "name": "step9",
            "outputs": [
                {
                    "internalType": "int256",
                    "name": "responseCode",
                    "type": "int256"
                }
            ],
            "stateMutability": "nonpayable",
            "type": "function"
        },
        {
            "inputs": [
                {
                    "internalType": "address",
                    "name": "token",
                    "type": "address"
                },
                {
                    "internalType": "address",
                    "name": "from",
                    "type": "address"
                },
                {
                    "internalType": "address",
                    "name": "to",
                    "type": "address"
                },
                {
                    "internalType": "uint256",
                    "name": "amount",
                    "type": "uint256"
                }
            ],
            "name": "transferFrom",
            "outputs": [
                {
                    "internalType": "int64",
                    "name": "responseCode",
                    "type": "int64"
                }
            ],
            "stateMutability": "nonpayable",
            "type": "function"
        },
        {
            "inputs": [
                {
                    "internalType": "address",
                    "name": "token",
                    "type": "address"
                },
                {
                    "internalType": "address",
                    "name": "from",
                    "type": "address"
                },
                {
                    "internalType": "address",
                    "name": "to",
                    "type": "address"
                },
                {
                    "internalType": "uint256",
                    "name": "serialNumber",
                    "type": "uint256"
                }
            ],
            "name": "transferFromNFT",
            "outputs": [
                {
                    "internalType": "int64",
                    "name": "responseCode",
                    "type": "int64"
                }
            ],
            "stateMutability": "nonpayable",
            "type": "function"
        }
    ],
    "bytecode": {
        "object": "0x60806040523480156200001157600080fd5b506040516200261c3803806200261c83398101604081905262000034916200018d565b600160208181527fa6eef7e35abe7026729641147f7915573c7e97b47efa546f5f6e3230263bcb499190915560027fcc69885fda6bcc1a4ace058b4a62bf5e179ea78fd58a1ccd71c22cc9b688792f81905560047fd9d16d34ffb15ba3a3d852f0d403e2ce1d691fb54de27ac87cd2f993f3ec330f5560087f7dfe757ecd65cbd7922a9c0161e935dd7fdbcc0e999689c7d31633896b1fc60b5560107fedc95719e9a3b28dd8e80877cb5880a9be7de1a13fc8b05e7999683b6b567643557fe2689cd4a84e23ad2f564004f1c9013e9589d260bde6380aba3ca7e09e4df40c91909155600660005260407f8f331abe73332f95a25873e8b430885974c0409691f89d643119a11623a7924a5580546001600160a01b039384166001600160a01b03199182161790915560038054929093169116179055620001c5565b80516001600160a01b03811681146200018857600080fd5b919050565b60008060408385031215620001a157600080fd5b620001ac8362000170565b9150620001bc6020840162000170565b90509250929050565b61244780620001d56000396000f3fe60806040526004361061012a5760003560e01c80639b23d3d9116100ab578063c30131c51161006f578063c30131c5146102e5578063d40a71fb146102fa578063d83bf9a114610302578063df4ec24914610317578063eb7c6f721461032c578063fb5d73761461034157600080fd5b80639b23d3d914610271578063a3221c8e14610291578063ade094b4146102a6578063bdc7a422146102bb578063bddd3a6b146102d057600080fd5b80634fb4bcec116100f25780634fb4bcec146101e4578063618dc65e146101f95780637f990e8f146102275780637fbaadba146102475780638f4ed3331461025c57600080fd5b806315dacbea1461012f57806323a452ad1461016757806336f468911461019757806344ac2d48146101ba578063462a08df146101cf575b600080fd5b34801561013b57600080fd5b5061014f61014a366004611a9d565b610356565b60405160079190910b81526020015b60405180910390f35b61017a610175366004611bb3565b61044a565b604080519283526001600160a01b0390911660208301520161015e565b3480156101a357600080fd5b506101ac6106fa565b60405190815260200161015e565b3480156101c657600080fd5b506101ac610739565b3480156101db57600080fd5b506101ac6107b7565b3480156101f057600080fd5b506101ac610850565b34801561020557600080fd5b50610219610214366004611bf0565b610888565b60405161015e929190611c90565b34801561023357600080fd5b506101ac610242366004611ccd565b6109b6565b34801561025357600080fd5b506101ac610aa6565b34801561026857600080fd5b506101ac610ae4565b34801561027d57600080fd5b5061014f61028c366004611a9d565b610b60565b34801561029d57600080fd5b506101ac610ba5565b3480156102b257600080fd5b506101ac610bdb565b3480156102c757600080fd5b506101ac610c54565b3480156102dc57600080fd5b506101ac610c8a565b3480156102f157600080fd5b506101ac610cb9565b6101ac610cf1565b34801561030e57600080fd5b506101ac610f46565b34801561032357600080fd5b506101ac611038565b34801561033857600080fd5b506101ac61106e565b34801561034d57600080fd5b506101ac61109d565b6040516001600160a01b038581166024830152848116604483015283166064820152608481018290526000908190819061016790630aed65f560e11b9060a4015b60408051601f198184030181529181526020820180516001600160e01b03166001600160e01b03199094169390931790925290516103d59190611d7e565b6000604051808303816000865af19150503d8060008114610412576040519150601f19603f3d011682016040523d82523d6000602084013e610417565b606091505b50915091508161042857601561043c565b8080602001905181019061043c9190611db1565b60030b979650505050505050565b60025460009081906001600160a01b0316331461046657600080fd5b604080516001808252818301909252600091816020015b610485611a23565b81526020019060019003908161047d5790505090506104a9600060046002876110d7565b816000815181106104bc576104bc611dcc565b6020908102919091010152604080516001808252818301909252600091816020015b6040805160a0810182526000808252602080830182905292820181905260608201819052608082015282526000199092019101816104de5750506002546040805160a08101825260006020820181905260608201526305f5e10081526001918101919091526001600160a01b0390911660808201529091508160008151811061056957610569611dcc565b6020908102919091018101919091526040805161016081018252601161012082019081527022bc30b6b836329027232a103a37b5b2b760791b6101408301528152815180830183526004808252631153919560e21b82860152828501919091523082840181905283518085018552918252636d656d6f60e01b82860152606080840192909252600160808401526103e860a0840152600060c0840181905260e0840188905284519283018552825293810193909352626acfc0918301919091526106929161010082015260408051600080825260208201909252849161068c565b6040805160c08101825260008082526020808301829052928201819052606082018190526080820181905260a0820152825260001990920191018161064a5790505b5061110e565b600580546001600160a01b039283166001600160a01b031990911617905560025460405192965016904780156108fc02916000818181858888f193505050501580156106e2573d6000803e3d6000fd5b505060055492946001600160a01b0390931693505050565b6002546000906001600160a01b0316331461071457600080fd5b600554600354610734916001600160a01b03908116913091166001611236565b905090565b6002546000906001600160a01b0316331461075357600080fd5b306001600160a01b031663d83bf9a16040518163ffffffff1660e01b81526004016020604051808303816000875af1158015610793573d6000803e3d6000fd5b505050506040513d601f19601f820116820180604052508101906107349190611de2565b6002546000906001600160a01b031633146107d157600080fd5b6040805160018082528183019092526000916020808301908036833701905050905060038160008151811061080857610808611dcc565b60079290920b60209283029190910190910152600554600090610835906001600160a01b0316828461127e565b90935090506002600782900b1461084b57600080fd5b505090565b6002546000906001600160a01b0316331461086a57600080fd5b600454600354610734916001600160a01b0390811691166064611367565b600060606000806101676001600160a01b031663618dc65e60e01b87876040516024016108b6929190611dfb565b60408051601f198184030181529181526020820180516001600160e01b03166001600160e01b03199094169390931790925290516108f49190611d7e565b6000604051808303816000865af19150503d8060008114610931576040519150601f19603f3d011682016040523d82523d6000602084013e610936565b606091505b50915091507f4af4780e06fe8cb9df64b0794fa6f01399af979175bb988e35e0e57e594567bc828260405161096c929190611e1f565b60405180910390a181610990576015604051806020016040528060008152506109a4565b808060200190518101906109a49190611e3a565b60039190910b97909650945050505050565b6002546000906001600160a01b031633146109d057600080fd5b81516003146109de57600080fd5b6005546000906060906109fb906001600160a01b03168386611452565b919450925090506003600783900b14610a1357600080fd5b8051600314610a2157600080fd5b80600081518110610a3457610a34611dcc565b602002602001015160070b600114610a4b57600080fd5b80600181518110610a5e57610a5e611dcc565b602002602001015160070b600214610a7557600080fd5b80600281518110610a8857610a88611dcc565b602002602001015160070b600314610a9f57600080fd5b5050919050565b6002546000906001600160a01b03163314610ac057600080fd5b600454600354610adc916001600160a01b039081169116611550565b60070b905090565b6002546000906001600160a01b03163314610afe57600080fd5b600454604080516000808252602082019092529091606091610b48916001600160a01b03169060649085610b42565b6060815260200190600190039081610b2d5790505b50611452565b9194509250905060c8600783900b1461084b57600080fd5b6040516001600160a01b038581166024830152848116604483015283166064820152608481018290526000908190819061016790639b23d3d960e01b9060a401610397565b6002546000906001600160a01b03163314610bbf57600080fd5b600454600354610adc916001600160a01b039081169116611633565b6002546000906001600160a01b03163314610bf557600080fd5b600454600090610c3a906001600160a01b0316603283604051908082528060200260200182016040528015610c34578160200160208202803683370190505b5061127e565b90925090506096600782900b14610c5057600080fd5b5090565b6002546000906001600160a01b03163314610c6e57600080fd5b600354600554610734916001600160a01b039081169116611669565b6002546000906001600160a01b03163314610ca457600080fd5b600454610734906001600160a01b031661169f565b6002546000906001600160a01b03163314610cd357600080fd5b600554600354610734916001600160a01b0390811691166002611779565b6002546000906001600160a01b03163314610d0b57600080fd5b60408051600480825260a08201909252600091816020015b610d2b611a23565b815260200190600190039081610d23579050509050610d5e600060066000604051806020016040528060008152506110d7565b81600081518110610d7157610d71611dcc565b6020026020010181905250610d9860026000604051806020016040528060008152506117b6565b81600181518110610dab57610dab611dcc565b6020026020010181905250610dd260036000604051806020016040528060008152506117b6565b81600281518110610de557610de5611dcc565b6020026020010181905250610e0c60046000604051806020016040528060008152506117b6565b81600381518110610e1f57610e1f611dcc565b6020908102919091018101919091526040805161016081018252601661012082019081527522bc30b6b8363290233ab733b4b13632903a37b5b2b760511b6101408301528152815180830183526001808252604560f81b8286015282850191909152308284018190528351808501855260048152636d656d6f60e01b8187015260608085019190915260808401929092526103e860a0840152600060c0840181905260e0840187905284519283018552825293810193909352626acfc091830191909152610ef691610100820152606460006117eb565b600480546001600160a01b039283166001600160a01b031990911617905560025460405192945016904780156108fc02916000818181858888f1935050505015801561084b573d6000803e3d6000fd5b60408051600481526024810182526020810180516001600160e01b031663d83bf9a160e01b17905290516000918291829161016991610f859190611d7e565b6000604051808303816000865af19150503d8060008114610fc2576040519150601f19603f3d011682016040523d82523d6000602084013e610fc7565b606091505b50915091508161101d5760405162461bcd60e51b815260206004820152601760248201527f50524e472073797374656d2063616c6c206661696c6564000000000000000000604482015260640160405180910390fd5b808060200190518101906110319190611de2565b9250505090565b6002546000906001600160a01b0316331461105257600080fd5b600354600454610734916001600160a01b039081169116611669565b6002546000906001600160a01b0316331461108857600080fd5b600454610734906001600160a01b0316611858565b6002546000906001600160a01b031633146110b757600080fd5b600454600354610734916001600160a01b03908116913091166064611886565b6110df611a23565b60405180604001604052806110f487876118ce565b81526020016111038585611910565b905295945050505050565b600080848061010001516000015160070b600014801561113857506101008101516040015160070b155b1561114e576101008101516276a7006040909101525b6000806101676001600160a01b03163463abb54eb560e01b8a8a8a60405160240161117b9392919061210f565b60408051601f198184030181529181526020820180516001600160e01b03166001600160e01b03199094169390931790925290516111b99190611d7e565b60006040518083038185875af1925050503d80600081146111f6576040519150601f19603f3d011682016040523d82523d6000602084013e6111fb565b606091505b50915091508161120e5760156000611222565b8080602001905181019061122291906121b5565b60039190910b999098509650505050505050565b6040516001600160a01b038581166024830152848116604483015283166064820152600782900b60848201526000908190819061016790635cfc901160e01b9060a401610397565b6000806000806101676001600160a01b031663d6910d0660e01b8888886040516024016112ad939291906121ec565b60408051601f198184030181529181526020820180516001600160e01b03166001600160e01b03199094169390931790925290516112eb9190611d7e565b6000604051808303816000865af19150503d8060008114611328576040519150601f19603f3d011682016040523d82523d6000602084013e61132d565b606091505b5091509150816113405760156000611354565b808060200190518101906113549190612262565b60039190910b9890975095505050505050565b6040516001600160a01b0384811660248301528316604482015260648101829052600090819081906101679063e1f21c6760e01b906084015b60408051601f198184030181529181526020820180516001600160e01b03166001600160e01b03199094169390931790925290516113de9190611d7e565b6000604051808303816000865af19150503d806000811461141b576040519150601f19603f3d011682016040523d82523d6000602084013e611420565b606091505b509150915081611431576015611445565b808060200190518101906114459190611db1565b60030b9695505050505050565b60008060606000806101676001600160a01b031663e0f4059a60e01b89898960405160240161148393929190612295565b60408051601f198184030181529181526020820180516001600160e01b03166001600160e01b03199094169390931790925290516114c19190611d7e565b6000604051808303816000865af19150503d80600081146114fe576040519150601f19603f3d011682016040523d82523d6000602084013e611503565b606091505b50915091508161152657604080516000808252602082019092526015919061153a565b8080602001905181019061153a9190612311565b60039290920b9a90995090975095505050505050565b6040516001600160a01b0383811660248301528216604482015260009081908190610167906352f9138760e01b906064015b60408051601f198184030181529181526020820180516001600160e01b03166001600160e01b03199094169390931790925290516115c09190611d7e565b6000604051808303816000865af19150503d80600081146115fd576040519150601f19603f3d011682016040523d82523d6000602084013e611602565b606091505b509150915081611613576015611627565b808060200190518101906116279190611db1565b60030b95945050505050565b6040516001600160a01b0383811660248301528216604482015260009081908190610167906316e3e16160e21b90606401611582565b6040516001600160a01b03838116602483015282166044820152600090819081906101679063248a35ef60e11b90606401611582565b6040516001600160a01b03821660248201526000908190819061016790633b3bff0f60e01b906044015b60408051601f198184030181529181526020820180516001600160e01b03166001600160e01b03199094169390931790925290516117079190611d7e565b6000604051808303816000865af19150503d8060008114611744576040519150601f19603f3d011682016040523d82523d6000602084013e611749565b606091505b50915091508161175a57601561176e565b8080602001905181019061176e9190611db1565b60030b949350505050565b6040516001600160a01b038481166024830152831660448201526064810182905260009081908190610167906307336aaf60e41b906084016113a0565b6117be611a23565b60405180604001604052806117d2866119e4565b81526020016117e18585611910565b9052949350505050565b600080848061010001516000015160070b600014801561181557506101008101516040015160070b155b1561182b576101008101516276a7006040909101525b6000806101676001600160a01b031634630fb65bf360e01b8a8a8a60405160240161117b939291906123cc565b6040516001600160a01b03821660248201526000908190819061016790631f106b4b60e21b906044016116c9565b6040516001600160a01b038581166024830152848116604483015283166064820152600782900b6084820152600090819081906101679063eca3691760e01b9060a401610397565b60006118f28360068111156118e5576118e56123fb565b600160ff9091161b821790565b90506119098260068111156118e5576118e56123fb565b9392505050565b611918611a42565b600083600481111561192c5761192c6123fb565b0361193a57600181526119de565b600183600481111561194e5761194e6123fb565b03611969576000546001600160a01b031660208201526119de565b600283600481111561197d5761197d6123fb565b0361198e57604081018290526119de565b60038360048111156119a2576119a26123fb565b036119b357606081018290526119de565b60048360048111156119c7576119c76123fb565b036119de576000546001600160a01b031660808201525b92915050565b6000600160008360068111156119fc576119fc6123fb565b6006811115611a0d57611a0d6123fb565b8152602001908152602001600020549050919050565b604051806040016040528060008152602001611a3d611a42565b905290565b6040518060a0016040528060001515815260200160006001600160a01b03168152602001606081526020016060815260200160006001600160a01b031681525090565b6001600160a01b0381168114611a9a57600080fd5b50565b60008060008060808587031215611ab357600080fd5b8435611abe81611a85565b93506020850135611ace81611a85565b92506040850135611ade81611a85565b9396929550929360600135925050565b634e487b7160e01b600052604160045260246000fd5b604051601f8201601f1916810167ffffffffffffffff81118282101715611b2d57611b2d611aee565b604052919050565b600067ffffffffffffffff821115611b4f57611b4f611aee565b50601f01601f191660200190565b600082601f830112611b6e57600080fd5b8135611b81611b7c82611b35565b611b04565b818152846020838601011115611b9657600080fd5b816020850160208301376000918101602001919091529392505050565b600060208284031215611bc557600080fd5b813567ffffffffffffffff811115611bdc57600080fd5b611be884828501611b5d565b949350505050565b60008060408385031215611c0357600080fd5b8235611c0e81611a85565b9150602083013567ffffffffffffffff811115611c2a57600080fd5b611c3685828601611b5d565b9150509250929050565b60005b83811015611c5b578181015183820152602001611c43565b50506000910152565b60008151808452611c7c816020860160208601611c40565b601f01601f19169290920160200192915050565b828152604060208201526000611be86040830184611c64565b600067ffffffffffffffff821115611cc357611cc3611aee565b5060051b60200190565b60006020808385031215611ce057600080fd5b823567ffffffffffffffff80821115611cf857600080fd5b818501915085601f830112611d0c57600080fd5b8135611d1a611b7c82611ca9565b81815260059190911b83018401908481019088831115611d3957600080fd5b8585015b83811015611d7157803585811115611d555760008081fd5b611d638b89838a0101611b5d565b845250918601918601611d3d565b5098975050505050505050565b60008251611d90818460208701611c40565b9190910192915050565b8051600381900b8114611dac57600080fd5b919050565b600060208284031215611dc357600080fd5b61190982611d9a565b634e487b7160e01b600052603260045260246000fd5b600060208284031215611df457600080fd5b5051919050565b6001600160a01b0383168152604060208201819052600090611be890830184611c64565b8215158152604060208201526000611be86040830184611c64565b60008060408385031215611e4d57600080fd5b611e5683611d9a565b9150602083015167ffffffffffffffff811115611e7257600080fd5b8301601f81018513611e8357600080fd5b8051611e91611b7c82611b35565b818152866020838501011115611ea657600080fd5b611eb7826020830160208601611c40565b8093505050509250929050565b600081518084526020808501808196508360051b8101915082860160005b85811015611f7a57828403895281516040815186528682015191508087870152815115158187015286820151606060018060a01b03808316828a015283850151935060a09250608083818b0152611f3c60e08b0186611c64565b928601518a8403603f1901858c0152929450611f588584611c64565b9501511660c09890980197909752505098850198935090840190600101611ee2565b5091979650505050505050565b60006101608251818552611f9d82860182611c64565b91505060208301518482036020860152611fb78282611c64565b9150506040830151611fd460408601826001600160a01b03169052565b5060608301518482036060860152611fec8282611c64565b9150506080830151612002608086018215159052565b5060a083015161201760a086018260070b9052565b5060c083015161202b60c086018215159052565b5060e083015184820360e08601526120438282611ec4565b610100858101518051600790810b8984015260208201516001600160a01b03166101208a01526040820151900b61014089015291935091505090949350505050565b600081518084526020808501945080840160005b838110156121045781518051600790810b895284820151810b858a015260408083015190910b908901526060808201516001600160a01b03908116918a01919091526080808301511515908a015260a091820151169088015260c09096019590820190600101612099565b509495945050505050565b6000606080835261212281840187611f87565b83810360208581019190915286518083528782019282019060005b81811015612194578451805160070b8452848101516001600160a01b03908116868601526040808301511515908601528782015115158886015260809182015116908401529383019360a09092019160010161213d565b505085810360408701526121a88188612085565b9998505050505050505050565b600080604083850312156121c857600080fd5b6121d183611d9a565b915060208301516121e181611a85565b809150509250929050565b60006060820160018060a01b03861683526020600786810b8286015260606040860152828651808552608087019150838801945060005b81811015612241578551840b83529484019491840191600101612223565b50909998505050505050505050565b8051600781900b8114611dac57600080fd5b6000806040838503121561227557600080fd5b61227e83611d9a565b915061228c60208401612250565b90509250929050565b60006060820160018060a01b038616835260208560070b818501526060604085015281855180845260808601915060808160051b870101935082870160005b8281101561230257607f198887030184526122f0868351611c64565b955092840192908401906001016122d4565b50939998505050505050505050565b60008060006060848603121561232657600080fd5b61232f84611d9a565b9250602061233e818601612250565b9250604085015167ffffffffffffffff81111561235a57600080fd5b8501601f8101871361236b57600080fd5b8051612379611b7c82611ca9565b81815260059190911b8201830190838101908983111561239857600080fd5b928401925b828410156123bd576123ae84612250565b8252928401929084019061239d565b80955050505050509250925092565b6060815260006123df6060830186611f87565b90508360070b60208301528260030b6040830152949350505050565b634e487b7160e01b600052602160045260246000fdfea26469706673582212207d7b4eef40c8d0a9f33eab37a279a9d5a0ca37338bccbc4b210131494d7c009164736f6c63430008130033",
        "linkReferences": {}
    },
    "methodIdentifiers": {
        "getPseudorandomSeed()": "d83bf9a1",
        "redirectForToken(address,bytes)": "618dc65e",
        "step0()": "44ac2d48",
        "step1()": "d40a71fb",
        "step10()": "ade094b4",
        "step11(bytes)": "23a452ad",
        "step12(bytes[])": "7f990e8f",
        "step13()": "bdc7a422",
        "step14()": "36f46891",
        "step15()": "c30131c5",
        "step16()": "462a08df",
        "step2()": "8f4ed333",
        "step3()": "df4ec249",
        "step4()": "fb5d7376",
        "step5()": "4fb4bcec",
        "step6()": "eb7c6f72",
        "step7()": "bddd3a6b",
        "step8()": "a3221c8e",
        "step9()": "7fbaadba",
        "transferFrom(address,address,address,uint256)": "15dacbea",
        "transferFromNFT(address,address,address,uint256)": "9b23d3d9"
    },
    "id": 29
}