{
    "abi": [
        {
            "inputs": [
                {
                    "internalType": "address payable",
                    "name": "_owner",
                    "type": "address"
                },
                {
                    "internalType": "address payable",
                    "name": "_aliceAccount",
                    "type": "address"
                }
            ],
            "stateMutability": "nonpayable",
            "type": "constructor"
        },
        {
            "anonymous": false,
            "inputs": [
                {
                    "indexed": false,
                    "internalType": "bool",
                    "name": "",
                    "type": "bool"
                },
                {
                    "indexed": false,
                    "internalType": "bytes",
                    "name": "",
                    "type": "bytes"
                }
            ],
            "name": "CallResponseEvent",
            "type": "event"
        },
        {
            "inputs": [],
            "name": "getPseudorandomSeed",
            "outputs": [
                {
                    "internalType": "bytes32",
                    "name": "seedBytes",
                    "type": "bytes32"
                }
            ],
            "stateMutability": "nonpayable",
            "type": "function"
        },
        {
            "inputs": [
                {
                    "internalType": "address",
                    "name": "token",
                    "type": "address"
                },
                {
                    "internalType": "bytes",
                    "name": "encodedFunctionSelector",
                    "type": "bytes"
                }
            ],
            "name": "redirectForToken",
            "outputs": [
                {
                    "internalType": "int256",
                    "name": "responseCode",
                    "type": "int256"
                },
                {
                    "internalType": "bytes",
                    "name": "response",
                    "type": "bytes"
                }
            ],
            "stateMutability": "nonpayable",
            "type": "function"
        },
        {
            "inputs": [],
            "name": "step0",
            "outputs": [
                {
                    "internalType": "int256",
                    "name": "responseCode",
                    "type": "int256"
                },
                {
                    "internalType": "address",
                    "name": "",
                    "type": "address"
                }
            ],
            "stateMutability": "payable",
            "type": "function"
        },
        {
            "inputs": [],
            "name": "step1",
            "outputs": [
                {
                    "internalType": "int256",
                    "name": "responseCode",
                    "type": "int256"
                }
            ],
            "stateMutability": "nonpayable",
            "type": "function"
        },
        {
            "inputs": [],
            "name": "step2",
            "outputs": [
                {
                    "internalType": "int256",
                    "name": "responseCode",
                    "type": "int256"
                }
            ],
            "stateMutability": "nonpayable",
            "type": "function"
        },
        {
            "inputs": [],
            "name": "step3",
            "outputs": [
                {
                    "internalType": "int256",
                    "name": "responseCode",
                    "type": "int256"
                }
            ],
            "stateMutability": "nonpayable",
            "type": "function"
        },
        {
            "inputs": [],
            "name": "step4",
            "outputs": [
                {
                    "internalType": "int256",
                    "name": "responseCode",
                    "type": "int256"
                }
            ],
            "stateMutability": "nonpayable",
            "type": "function"
        },
        {
            "inputs": [],
            "name": "step5",
            "outputs": [
                {
                    "internalType": "int256",
                    "name": "responseCode",
                    "type": "int256"
                }
            ],
            "stateMutability": "nonpayable",
            "type": "function"
        },
        {
            "inputs": [
                {
                    "internalType": "address",
                    "name": "token",
                    "type": "address"
                },
                {
                    "internalType": "address",
                    "name": "from",
                    "type": "address"
                },
                {
                    "internalType": "address",
                    "name": "to",
                    "type": "address"
                },
                {
                    "internalType": "uint256",
                    "name": "amount",
                    "type": "uint256"
                }
            ],
            "name": "transferFrom",
            "outputs": [
                {
                    "internalType": "int64",
                    "name": "responseCode",
                    "type": "int64"
                }
            ],
            "stateMutability": "nonpayable",
            "type": "function"
        },
        {
            "inputs": [
                {
                    "internalType": "address",
                    "name": "token",
                    "type": "address"
                },
                {
                    "internalType": "address",
                    "name": "from",
                    "type": "address"
                },
                {
                    "internalType": "address",
                    "name": "to",
                    "type": "address"
                },
                {
                    "internalType": "uint256",
                    "name": "serialNumber",
                    "type": "uint256"
                }
            ],
            "name": "transferFromNFT",
            "outputs": [
                {
                    "internalType": "int64",
                    "name": "responseCode",
                    "type": "int64"
                }
            ],
            "stateMutability": "nonpayable",
            "type": "function"
        }
    ],
    "bytecode": {
        "object": "0x60806040523480156200001157600080fd5b50604051620019973803806200199783398101604081905262000034916200018d565b600160208181527fa6eef7e35abe7026729641147f7915573c7e97b47efa546f5f6e3230263bcb499190915560027fcc69885fda6bcc1a4ace058b4a62bf5e179ea78fd58a1ccd71c22cc9b688792f81905560047fd9d16d34ffb15ba3a3d852f0d403e2ce1d691fb54de27ac87cd2f993f3ec330f5560087f7dfe757ecd65cbd7922a9c0161e935dd7fdbcc0e999689c7d31633896b1fc60b5560107fedc95719e9a3b28dd8e80877cb5880a9be7de1a13fc8b05e7999683b6b567643557fe2689cd4a84e23ad2f564004f1c9013e9589d260bde6380aba3ca7e09e4df40c91909155600660005260407f8f331abe73332f95a25873e8b430885974c0409691f89d643119a11623a7924a5580546001600160a01b039384166001600160a01b03199182161790915560038054929093169116179055620001c5565b80516001600160a01b03811681146200018857600080fd5b919050565b60008060408385031215620001a157600080fd5b620001ac8362000170565b9150620001bc6020840162000170565b90509250929050565b6117c280620001d56000396000f3fe6080604052600436106100915760003560e01c80639b23d3d9116100595780639b23d3d914610159578063d40a71fb14610179578063d83bf9a11461018e578063df4ec249146101a3578063fb5d7376146101b857600080fd5b806315dacbea1461009657806344ac2d48146100ce5780634fb4bcec146100f3578063618dc65e146101165780638f4ed33314610144575b600080fd5b3480156100a257600080fd5b506100b66100b1366004611058565b6101cd565b60405160079190910b81526020015b60405180910390f35b6100d66102c1565b604080519283526001600160a01b039091166020830152016100c5565b3480156100ff57600080fd5b5061010861052f565b6040519081526020016100c5565b34801561012257600080fd5b50610136610131366004611118565b61056c565b6040516100c59291906111fb565b34801561015057600080fd5b5061010861069a565b34801561016557600080fd5b506100b6610174366004611058565b6106d4565b34801561018557600080fd5b50610108610719565b34801561019a57600080fd5b5061010861074f565b3480156101af57600080fd5b50610108610841565b3480156101c457600080fd5b506101086108ae565b6040516001600160a01b038581166024830152848116604483015283166064820152608481018290526000908190819061016790630aed65f560e11b9060a4015b60408051601f198184030181529181526020820180516001600160e01b03166001600160e01b031990941693909317909252905161024c919061121c565b6000604051808303816000865af19150503d8060008114610289576040519150601f19603f3d011682016040523d82523d6000602084013e61028e565b606091505b50915091508161029f5760156102b3565b808060200190518101906102b3919061124f565b60030b979650505050505050565b60025460009081906001600160a01b031633146102dd57600080fd5b60408051600480825260a08201909252600091816020015b6102fd610fde565b8152602001906001900390816102f557905050905061033060006006600060405180602001604052806000815250610913565b816000815181106103435761034361126a565b602002602001018190525061036a600260006040518060200160405280600081525061094a565b8160018151811061037d5761037d61126a565b60200260200101819052506103a4600360006040518060200160405280600081525061094a565b816002815181106103b7576103b761126a565b60200260200101819052506103de600460006040518060200160405280600081525061094a565b816003815181106103f1576103f161126a565b6020908102919091018101919091526040805161016081018252601661012082019081527522bc30b6b8363290233ab733b4b13632903a37b5b2b760511b6101408301528152815180830183526001808252604560f81b8286015282850191909152308284018190528351808501855260048152636d656d6f60e01b8187015260608085019190915260808401929092526103e860a0840152600060c0840181905260e0840187905284519283018552825293810193909352626acfc0918301919091526104c8916101008201526064600061097f565b600480546001600160a01b039283166001600160a01b031990911617905560025460405192955016904780156108fc02916000818181858888f19350505050158015610518573d6000803e3d6000fd5b505060045491926001600160a01b03909216919050565b6002546000906001600160a01b0316331461054957600080fd5b600454600354610567916001600160a01b0390811691166000610aa7565b905090565b600060606000806101676001600160a01b031663618dc65e60e01b878760405160240161059a929190611280565b60408051601f198184030181529181526020820180516001600160e01b03166001600160e01b03199094169390931790925290516105d8919061121c565b6000604051808303816000865af19150503d8060008114610615576040519150601f19603f3d011682016040523d82523d6000602084013e61061a565b606091505b50915091507f4af4780e06fe8cb9df64b0794fa6f01399af979175bb988e35e0e57e594567bc82826040516106509291906112a4565b60405180910390a18161067457601560405180602001604052806000815250610688565b8080602001905181019061068891906112bf565b60039190910b97909650945050505050565b6002546000906001600160a01b031633146106b457600080fd5b600454600354610567916001600160a01b03908116913091166000610b86565b6040516001600160a01b038581166024830152848116604483015283166064820152608481018290526000908190819061016790639b23d3d960e01b9060a40161020e565b6002546000906001600160a01b0316331461073357600080fd5b600354600454610567916001600160a01b039081169116610bce565b60408051600481526024810182526020810180516001600160e01b031663d83bf9a160e01b1790529051600091829182916101699161078e919061121c565b6000604051808303816000865af19150503d80600081146107cb576040519150601f19603f3d011682016040523d82523d6000602084013e6107d0565b606091505b5091509150816108265760405162461bcd60e51b815260206004820152601760248201527f50524e472073797374656d2063616c6c206661696c6564000000000000000000604482015260640160405180910390fd5b8080602001905181019061083a9190611349565b9250505090565b6002546000906001600160a01b0316331461085b57600080fd5b6004546040805160008082526020820190925290916060916108a4916001600160a01b03169084908161089e565b60608152602001906001900390816108895790505b50610ca2565b5090949350505050565b6002546000906001600160a01b031633146108c857600080fd5b60045460009061090c906001600160a01b03168280604051908082528060200260200182016040528015610906578160200160208202803683370190505b50610da0565b5092915050565b61091b610fde565b60405180604001604052806109308787610e89565b815260200161093f8585610ecb565b905295945050505050565b610952610fde565b604051806040016040528061096686610f9f565b81526020016109758585610ecb565b9052949350505050565b600080848061010001516000015160070b60001480156109a957506101008101516040015160070b155b156109bf576101008101516276a7006040909101525b6000806101676001600160a01b031634630fb65bf360e01b8a8a8a6040516024016109ec93929190611425565b60408051601f198184030181529181526020820180516001600160e01b03166001600160e01b0319909416939093179092529051610a2a919061121c565b60006040518083038185875af1925050503d8060008114610a67576040519150601f19603f3d011682016040523d82523d6000602084013e610a6c565b606091505b509150915081610a7f5760156000610a93565b80806020019051810190610a93919061154a565b60039190910b999098509650505050505050565b604080516001600160a01b03858116602483015284166044820152600783900b60648083019190915282518083039091018152608490910182526020810180516001600160e01b031663efef57f960e01b17905290516000918291829161016791610b12919061121c565b6000604051808303816000865af19150503d8060008114610b4f576040519150601f19603f3d011682016040523d82523d6000602084013e610b54565b606091505b509150915081610b65576015610b79565b80806020019051810190610b79919061124f565b60030b9695505050505050565b6040516001600160a01b038581166024830152848116604483015283166064820152600782900b6084820152600090819081906101679063eca3691760e01b9060a40161020e565b604080516001600160a01b038481166024830152831660448083019190915282518083039091018152606490910182526020810180516001600160e01b031663248a35ef60e11b17905290516000918291829161016791610c2f919061121c565b6000604051808303816000865af19150503d8060008114610c6c576040519150601f19603f3d011682016040523d82523d6000602084013e610c71565b606091505b509150915081610c82576015610c96565b80806020019051810190610c96919061124f565b60030b95945050505050565b60008060606000806101676001600160a01b031663e0f4059a60e01b898989604051602401610cd393929190611581565b60408051601f198184030181529181526020820180516001600160e01b03166001600160e01b0319909416939093179092529051610d11919061121c565b6000604051808303816000865af19150503d8060008114610d4e576040519150601f19603f3d011682016040523d82523d6000602084013e610d53565b606091505b509150915081610d76576040805160008082526020820190925260159190610d8a565b80806020019051810190610d8a919061160f565b60039290920b9a90995090975095505050505050565b6000806000806101676001600160a01b031663d6910d0660e01b888888604051602401610dcf939291906116df565b60408051601f198184030181529181526020820180516001600160e01b03166001600160e01b0319909416939093179092529051610e0d919061121c565b6000604051808303816000865af19150503d8060008114610e4a576040519150601f19603f3d011682016040523d82523d6000602084013e610e4f565b606091505b509150915081610e625760156000610e76565b80806020019051810190610e769190611743565b60039190910b9890975095505050505050565b6000610ead836006811115610ea057610ea0611776565b600160ff9091161b821790565b9050610ec4826006811115610ea057610ea0611776565b9392505050565b610ed3610ffd565b6000836004811115610ee757610ee7611776565b03610ef55760018152610f99565b6001836004811115610f0957610f09611776565b03610f24576000546001600160a01b03166020820152610f99565b6002836004811115610f3857610f38611776565b03610f495760408101829052610f99565b6003836004811115610f5d57610f5d611776565b03610f6e5760608101829052610f99565b6004836004811115610f8257610f82611776565b03610f99576000546001600160a01b031660808201525b92915050565b600060016000836006811115610fb757610fb7611776565b6006811115610fc857610fc8611776565b8152602001908152602001600020549050919050565b604051806040016040528060008152602001610ff8610ffd565b905290565b6040518060a0016040528060001515815260200160006001600160a01b03168152602001606081526020016060815260200160006001600160a01b031681525090565b6001600160a01b038116811461105557600080fd5b50565b6000806000806080858703121561106e57600080fd5b843561107981611040565b9350602085013561108981611040565b9250604085013561109981611040565b9396929550929360600135925050565b634e487b7160e01b600052604160045260246000fd5b604051601f8201601f1916810167ffffffffffffffff811182821017156110e8576110e86110a9565b604052919050565b600067ffffffffffffffff82111561110a5761110a6110a9565b50601f01601f191660200190565b6000806040838503121561112b57600080fd5b823561113681611040565b9150602083013567ffffffffffffffff81111561115257600080fd5b8301601f8101851361116357600080fd5b8035611176611171826110f0565b6110bf565b81815286602083850101111561118b57600080fd5b816020840160208301376000602083830101528093505050509250929050565b60005b838110156111c65781810151838201526020016111ae565b50506000910152565b600081518084526111e78160208601602086016111ab565b601f01601f19169290920160200192915050565b82815260406020820152600061121460408301846111cf565b949350505050565b6000825161122e8184602087016111ab565b9190910192915050565b8051600381900b811461124a57600080fd5b919050565b60006020828403121561126157600080fd5b610ec482611238565b634e487b7160e01b600052603260045260246000fd5b6001600160a01b0383168152604060208201819052600090611214908301846111cf565b821515815260406020820152600061121460408301846111cf565b600080604083850312156112d257600080fd5b6112db83611238565b9150602083015167ffffffffffffffff8111156112f757600080fd5b8301601f8101851361130857600080fd5b8051611316611171826110f0565b81815286602083850101111561132b57600080fd5b61133c8260208301602086016111ab565b8093505050509250929050565b60006020828403121561135b57600080fd5b5051919050565b600081518084526020808501808196508360051b8101915082860160005b8581101561141857828403895281516040815186528682015191508087870152815115158187015286820151606060018060a01b03808316828a015283850151935060a09250608083818b01526113da60e08b01866111cf565b928601518a8403603f1901858c01529294506113f685846111cf565b9501511660c09890980197909752505098850198935090840190600101611380565b5091979650505050505050565b60608152600084516101608060608501526114446101c08501836111cf565b91506020870151605f198086850301608087015261146284836111cf565b93506040890151915061148060a08701836001600160a01b03169052565b60608901519150808685030160c087015261149b84836111cf565b9350608089015191506114b260e087018315159052565b60a089015191506101006114ca8188018460070b9052565b60c08a0151151561012088015260e08a0151878603830161014089015292506114f38584611362565b9450808a01519250505061152d828601828051600790810b83526020808301516001600160a01b031690840152604091820151900b910152565b5050600785900b60208401529050611214604083018460030b9052565b6000806040838503121561155d57600080fd5b61156683611238565b9150602083015161157681611040565b809150509250929050565b60006060820160018060a01b038616835260208560070b818501526060604085015281855180845260808601915060808160051b870101935082870160005b828110156115ee57607f198887030184526115dc8683516111cf565b955092840192908401906001016115c0565b50939998505050505050505050565b8051600781900b811461124a57600080fd5b60008060006060848603121561162457600080fd5b61162d84611238565b9250602061163c8186016115fd565b9250604085015167ffffffffffffffff8082111561165957600080fd5b818701915087601f83011261166d57600080fd5b81518181111561167f5761167f6110a9565b8060051b91506116908483016110bf565b818152918301840191848101908a8411156116aa57600080fd5b938501935b838510156116cf576116c0856115fd565b825293850193908501906116af565b8096505050505050509250925092565b60006060820160018060a01b03861683526020600786810b8286015260606040860152828651808552608087019150838801945060005b81811015611734578551840b83529484019491840191600101611716565b50909998505050505050505050565b6000806040838503121561175657600080fd5b61175f83611238565b915061176d602084016115fd565b90509250929050565b634e487b7160e01b600052602160045260246000fdfea2646970667358221220c57bcfaa73f3d457502cf462cf5631c96e32af9e3fb17450b887a12a1375ddba64736f6c63430008130033",
        "linkReferences": {}
    },
    "methodIdentifiers": {
        "getPseudorandomSeed()": "d83bf9a1",
        "redirectForToken(address,bytes)": "618dc65e",
        "step0()": "44ac2d48",
        "step1()": "d40a71fb",
        "step2()": "8f4ed333",
        "step3()": "df4ec249",
        "step4()": "fb5d7376",
        "step5()": "4fb4bcec",
        "transferFrom(address,address,address,uint256)": "15dacbea",
        "transferFromNFT(address,address,address,uint256)": "9b23d3d9"
    },
    "id": 8
}