{
  "_format": "hh-sol-artifact-1",
  "contractName": "SetData",
  "sourceName": "contracts/SetData.sol",
  "abi": [
    {
      "inputs": [],
      "name": "getMessage",
      "outputs": [
        {
          "internalType": "string",
          "name": "",
          "type": "string"
        }
      ],
      "stateMutability": "view",
      "type": "function"
    },
    {
      "inputs": [],
      "name": "message",
      "outputs": [
        {
          "internalType": "string",
          "name": "",
          "type": "string"
        }
      ],
      "stateMutability": "view",
      "type": "function"
    },
    {
      "inputs": [],
      "name": "second_message",
      "outputs": [
        {
          "internalType": "string",
          "name": "",
          "type": "string"
        }
      ],
      "stateMutability": "view",
      "type": "function"
    },
    {
      "inputs": [
        {
          "internalType": "string",
          "name": "_message",
          "type": "string"
        }
      ],
      "name": "setMessage",
      "outputs": [
        {
          "internalType": "string",
          "name": "",
          "type": "string"
        }
      ],
      "stateMutability": "nonpayable",
      "type": "function"
    },
    {
      "inputs": [
        {
          "internalType": "string",
          "name": "_message",
          "type": "string"
        },
        {
          "internalType": "string",
          "name": "_second_message",
          "type": "string"
        }
      ],
      "name": "setMultipleMessages",
      "outputs": [
        {
          "internalType": "string",
          "name": "",
          "type": "string"
        }
      ],
      "stateMutability": "nonpayable",
      "type": "function"
    }
  ],
  "bytecode": "0x608060405234801561001057600080fd5b506104f4806100206000396000f3fe608060405234801561001057600080fd5b50600436106100575760003560e01c8063368b87721461005c57806380acb9e614610085578063ce6d41de14610098578063e21f37ce146100a0578063f7753390146100a8575b600080fd5b61006f61006a36600461037e565b6100b0565b60405161007c919061041a565b60405180910390f35b61006f6100933660046103b9565b6100e6565b61006f610131565b61006f6101c3565b61006f610251565b80516060906100c690600090602085019061025e565b50506040805180820190915260028152614f4b60f01b6020820152919050565b81516060906100fc90600090602086019061025e565b50815161011090600190602085019061025e565b50506040805180820190915260028152614f4b60f01b602082015292915050565b6060600080546101409061046d565b80601f016020809104026020016040519081016040528092919081815260200182805461016c9061046d565b80156101b95780601f1061018e576101008083540402835291602001916101b9565b820191906000526020600020905b81548152906001019060200180831161019c57829003601f168201915b5050505050905090565b600080546101d09061046d565b80601f01602080910402602001604051908101604052809291908181526020018280546101fc9061046d565b80156102495780601f1061021e57610100808354040283529160200191610249565b820191906000526020600020905b81548152906001019060200180831161022c57829003601f168201915b505050505081565b600180546101d09061046d565b82805461026a9061046d565b90600052602060002090601f01602090048101928261028c57600085556102d2565b82601f106102a557805160ff19168380011785556102d2565b828001600101855582156102d2579182015b828111156102d25782518255916020019190600101906102b7565b506102de9291506102e2565b5090565b5b808211156102de57600081556001016102e3565b600082601f830112610307578081fd5b813567ffffffffffffffff80821115610322576103226104a8565b604051601f8301601f19908116603f0116810190828211818310171561034a5761034a6104a8565b81604052838152866020858801011115610362578485fd5b8360208701602083013792830160200193909352509392505050565b60006020828403121561038f578081fd5b813567ffffffffffffffff8111156103a5578182fd5b6103b1848285016102f7565b949350505050565b600080604083850312156103cb578081fd5b823567ffffffffffffffff808211156103e2578283fd5b6103ee868387016102f7565b93506020850135915080821115610403578283fd5b50610410858286016102f7565b9150509250929050565b6000602080835283518082850152825b818110156104465785810183015185820160400152820161042a565b818111156104575783604083870101525b50601f01601f1916929092016040019392505050565b600181811c9082168061048157607f821691505b602082108114156104a257634e487b7160e01b600052602260045260246000fd5b50919050565b634e487b7160e01b600052604160045260246000fdfea2646970667358221220d9f0a78f3c164e32f000c5a8931383fc2cb1d412678c16d7ad4499e7fcf7786f64736f6c63430008040033",
  "linkReferences": {},
  "deployedLinkReferences": {}
}